:020000040800F2
:10000000005000204D0100089F010008AB010008CE
:10001000B1010008B7010008BD01000800000000A0
:10002000000000000000000000000000C301000804
:10003000CF01000800000000DB010008E701000814
:100040009D0100089D0100089D0100089D01000818
:100050009D0100089D0100089D0100089D01000808
:100060009D0100089D0100089D0100089D010008F8
:100070009D0100089D010008E10F0008F90F00082C
:100080009D0100089D0100089D0100089D010008D8
:100090009D0100089D0100089D0100089D010008C8
:1000A0009D0100089D0100089D0100089D010008B8
:1000B0009D0100089D0100089D0100089D010008A8
:1000C0009D0100089D0100089D0100089D01000898
:1000D0009D0100089D0100089D0100089D01000888
:1000E0009D0100089D0100089D010008000000001E
:1000F0000000000000000000000000000000000000
:0C01000000000000000000005FF808F1A3
:10010C0010B5054C237833B9044B13B10448AFF345
:10011C0000800123237010BD202800200000000067
:10012C005810000808B5034B1BB103490348AFF343
:10013C00008008BD00000000242800205810000892
:10014C00DFF834D0002103E00C4B5B5843500431F2
:10015C000B480C4B42189A42F6D30B4A02E0002390
:10016C0042F8043B094B9A42F9D300F0FFFC00F033
:10017C0049FF00F044F97047005000207810000847
:10018C00002800202028002020280020642800209F
:10019C00FEE780B400AF00BFBD4680BC704780B4A2
:1001AC0000AFFEE780B400AFFEE780B400AFFEE71F
:1001BC0080B400AFFEE780B400AF00BFBD4680BC8A
:1001CC00704780B400AF00BFBD4680BC704780B4A0
:1001DC0000AF00BFBD4680BC704780B400AF00BF0D
:1001EC00BD4680BC704780B400AF62B600BFBD4650
:1001FC0080BC704780B400AF72B600BFBD4680BCF7
:10020C007047000080B500AF0C4BFE221A700B4BF0
:10021C0000221A81094800F03BFE084B084A5A603C
:10022C000849064800F016FD0346002BF5D1034B98
:10023C001A78054B1A7000F009F8EEE740280020F8
:10024C0000000020DB7A07004C28002080B582B02B
:10025C0000AF594B1B78013B052B00F2A98001A282
:10026C0052F823F089020008A1020008B902000824
:10027C000D030008450300087F03000800F0EAF9AD
:10028C004E4B10221A704D4B00221A814B4800F035
:10029C00FFFD8DE000F0FAF9484B10221A70474B25
:1002AC0000221A81454800F0F3FD81E0434B5B6866
:1002BC001B681846414B5B68191D404B1B89043B5E
:1002CC00DA0F13445B109BB201339BB21A4600F059
:1002DC002BF90346002B09D1384B10221A70374BDF
:1002EC0000221A81354800F0D3FD61E0334B132214
:1002FC001A70324B00221A81304800F0C9FD57E0C9
:10030C002F4B7B607B681B683B60FFF773FF3B6880
:10031C0003F07043B3F1005F47D100F053F87868F5
:10032C0000F0B4FBFFF75FFF7B6804331B68396890
:10033C00184600F060F838E0204B5B681B681846E4
:10034C0000F046F90346002B09D11C4B10221A7001
:10035C001A4B00221A81194800F09AFD28E0174B1D
:10036C0011221A70154B00221A81144800F090FDCE
:10037C001EE0124B5B681B687B607B681B683B60F4
:10038C00FFF738FF3B6803F07043B3F1005F0ED109
:10039C0000F018F8786800F079FB7B6804331B6870
:1003AC003968184600F027F801E000BF00E000BFF4
:1003BC0000BF0837BD4680BD4C28002040280020D7
:1003CC000000002080B500AF00F0F6FA00F022FB30
:1003DC0000F004FB00F030FB00F04AFB252000F09D
:1003EC0020F80E2000F01DF80F2000F01AF800F095
:1003FC0031FA00BF80BD81F30888004700BF80B58B
:10040C0000AF00F0D7FBFFF7FDFEFEE780B582B032
:10041C0000AF7860786800F0EFF900BF0837BD4690
:10042C0080BD80B582B000AF7860786800F0FAF9D2
:10043C0000BF0837BD4680BD80B483B000AF786084
:10044C0039607B683A46126812011A6000BF0C379B
:10045C00BD4680BC704780B483B000AF78607B68C9
:10046C007A68126842F001021A6000BF0C37BD4670
:10047C0080BC704780B483B000AF78607B687A68CA
:10048C00126822F001021A6000BF0C37BD4680BC16
:10049C00704780B483B000AF78600B467B807B687C
:1004AC007A885A6000BF0C37BD4680BC704780B458
:1004BC0083B000AF786039607B683A68DA6000BF5F
:1004CC000C37BD4680BC704780B483B000AF7860F9
:1004DC0039607B683A689A6000BF0C37BD4680BCB7
:1004EC00704780B483B000AF78607B687A6812681C
:1004FC0042F00A021A6000BF0C37BD4680BC704740
:10050C0080B483B000AF7860064A7B68013B9B00E7
:10051C000F2101FA03F3536000BF0C37BD4680BCBA
:10052C00704700BF0000024080B487B000AFF86095
:10053C00B9601346FB8001237B750023FB82FB68AB
:10054C00B3F1006F39D3FB681F4A934235D800BF13
:10055C001E4BDB6803F00103002BF9D11B4A1B4B2C
:10056C001B6943F0010313610023FB8219E0174A56
:10057C00164B1B6943F020031361FB8A5B00FA687E
:10058C001344FA8A5200B9680A4412881A8000BFD0
:10059C000E4BDB6803F00103002BF9D1FB8A01330E
:1005AC00FB82FA8AFB889A42E1D3084A074B1B6903
:1005BC0023F00103136100237B757B7DDBB21846AE
:1005CC001C37BD4680BC704700400008002002402C
:1005DC0080B485B000AF78600123FB737B68B3F106
:1005EC00006F03D27B68194A934229D800BF184B7D
:1005FC00DB6803F00103002BF9D1154A144B1B697E
:10060C0043F002031361124A7B685361104A104B8A
:10061C001B6943F04003136100BF0D4BDB6803F013
:10062C000103002BF9D17B681B68B3F1FF3F01D1AB
:10063C000023FB73064A064B1B6923F0020313616C
:10064C00FB7B18461437BD4680BC70470040000841
:10065C000020024080B483B000AF0123FB710A4A32
:10066C00094B1B6943F080031361074B1B6903F0B3
:10067C008003002B01D00023FB71FB7918460C374B
:10068C00BD4680BC704700BF0020024080B483B0E0
:10069C0000AF0123FB710A4B1B6903F08003002B95
:1006AC0007D0074B074A5A60054B074A5A6000238C
:1006BC00FB71FB7918460C37BD4680BC704700BFF8
:1006CC000020024023016745AB89EFCD80B400AF19
:1006DC00044A044B1B6843F01003136000BFBD4673
:1006EC0080BC70470020024080B485B000AF034648
:1006FC00FB710123FB73FB79022B0DD8094A094BC3
:10070C001B6823F0030313600649064B1A68FB7938
:10071C0013430B600023FB73FB7B18461437BD4659
:10072C0080BC70470020024080B487B000AF786076
:10073C000023FB757B681B683B617B689B68BB6017
:10074C007B685B68FB60FB680F2B4CD8FB68072B46
:10075C0006D9FB68083BFB607B681B6804333B6174
:10076C00BB68022B16D83B691B68FA6892000F21F4
:10077C0001FA02F2D2431A403B691A603B691A68CB
:10078C00FB689B000233B96801FA03F31A433B6917
:10079C001A602AE0BB68072B22D83B691B68FA68F1
:1007AC0092000F2101FA02F2D2431A403B691A60FF
:1007BC003B691A68BB6803F00301FB689B000233BA
:1007CC0001FA03F31A433B691A603B691B68FA6828
:1007DC009200032101FA02F21A433B691A6004E009
:1007EC000123FB7501E00123FB75FB7D18461C37CB
:1007FC00BD4680BC7047000080B483B000AF786009
:10080C0007497B685B097A6802F01F02012000FA35
:10081C0002F241F8232000BF0C37BD4680BC704764
:10082C0000E100E080B483B000AF786008497B68D9
:10083C005B097A6802F01F02012000FA02F22033F1
:10084C0041F8232000BF0C37BD4680BC704700BF69
:10085C0000E100E080B400AF174A174B1B6843F06F
:10086C000103136000BF144B1B6803F00203022B3F
:10087C00F9D11149104B5A68104B13404B600E4A7A
:10088C000D4B1B6823F0847323F4803313600A4AE6
:10089C00094B1B6823F480231360074A064B5B68E3
:1008AC0023F4FE035360044B4FF41F029A6000BF05
:1008BC00BD4680BC704700BF001002400000FFF82E
:1008CC0080B483B000AF00237B600123FB70114A1E
:1008DC00104B1B6843F4803313607B6801337B60DF
:1008EC000C4B1B6803F40033002B03D17B68B3F56E
:1008FC00A06FF2D1074B1B6803F40033002B01D01F
:10090C000023FB70FB78DBB218460C37BD4680BC6D
:10091C00704700BF0010024080B400AF1E4A1E4B4F
:10092C005B6853601C4A1C4B5B6853601A4A1A4B39
:10093C005B6843F480635360174A174B5B6823F47E
:10094C007C135360144A144B5B6843F4E8135360F4
:10095C00114A114B1B6843F08073136000BF0E4BA0
:10096C001B6803F00073002BF9D00B4A0A4B5B6831
:10097C0023F003035360084A074B5B6843F0020300
:10098C00536000BF044B5B6803F00C03082BF9D1D8
:10099C0000BFBD4680BC70470010024080B400AF61
:1009AC00044A044B9B6943F00403936100BFBD46AA
:1009BC0080BC70470010024080B400AF064A064B62
:1009CC00DB6843F00403D360034B0022DA6000BF02
:1009DC00BD4680BC704700BF0010024080B400AF21
:1009EC00044A044B9B6923F00403936100BFBD468A
:1009FC0080BC70470010024080B400AF044A044B26
:100A0C009B6943F48043936100BFBD4680BC704733
:100A1C000010024080B400AF064A064BDB6843F47A
:100A2C008043D360034B0022DA6000BFBD4680BC1C
:100A3C00704700BF0010024080B400AF044A044B62
:100A4C009B6923F48043936100BFBD4680BC704713
:100A5C000010024080B400AF044A044B5B6943F0C1
:100A6C000103536100BFBD4680BC704700100240BB
:100A7C0080B400AF044A044B5B6923F0010353615B
:100A8C0000BFBD4680BC70470010024080B483B0EC
:100A9C0000AF7860BFF35F8F044A7B689360BFF34D
:100AAC004F8F00BF0C37BD4680BC704700ED00E097
:100ABC0080B400AF1C4B00229A811B4B00221A827F
:100ACC00194B00229A82184A174B9B899BB243F40C
:100ADC0080539BB29381144A134B1B8A9BB243F4F1
:100AEC0000539BB21382104A0F4B9B899BB243F469
:100AFC0000739BB293810C4A0B4B9B8A9BB243F0C5
:100B0C0040039BB29382084A074B9B8A9BB243F0EB
:100B1C0080039BB29382044B40F27A221A8100BF6D
:100B2C00BD4680BC704700BF0038014080B400AFA8
:100B3C000D4A0D4B9B899BB243F400539BB293819E
:100B4C00094A094B9B899BB243F008039BB29381E2
:100B5C00054A054B9B899BB243F004039BB29381DE
:100B6C0000BFBD4680BC70470038014080B500AF67
:100B7C00FFF770FE00F006F84FF00060FFF786FFFD
:100B8C0000BF80BD80B582B000AF0123FB71FFF7C1
:100B9C0097FE0346FB71FB79DBB2002B06D1FFF706
:100BAC0095FD0220FFF7A0FDFFF7B6FE00BF08374A
:100BBC00BD4680BD80B582B000AF0023FB71FFF74E
:100BCC0049FFFFF7EBFEFFF717FF0023FB710CE06B
:100BDC00FA7913465B0013449B00184A13441846D9
:100BEC00FFF7A2FDFB790133FB71FB79012BEFD9E8
:100BFC00FFF75EFF124B19681248FFF71DFC124BF2
:100C0C0019681248FFF718FC11490E48FFF75CFCF5
:100C1C000F490E48FFF758FC0A48FFF762FC0B48D7
:100C2C00FFF75FFC0E20FFF7F1FB0F20FFF7EEFB49
:100C3C00FFF77CFF00BF0837BD4680BD00280020B1
:100C4C001C280020440002401828002058000240B4
:100C5C000438014080B588B000AF78603960894BAA
:100C6C001B78002B03D1874B01221A7001E0012362
:100C7C0003E1844B1B78022B54D0032B00F09F8094
:100C8C00012B40F0F78001217F48FFF702FC07F1B0
:100C9C000C0319467C48FFF70AFC7B48FFF7DBFB8B
:100CAC000023FB6124E0774B1B78012B0ED1FA69F2
:100CBC003B689A4219D3734B00221A70714B002275
:100CCC001A707148FFF7D6FB0123D6E0FB69B3F12C
:100CDC00FF3F0AD16B4B00221A706A4B00221A702C
:100CEC006948FFF7C7FB0123C7E0FB690133FB61D0
:100CFC00664B1B78DBB2012BD5D16348FFF7BAFBEF
:100D0C00624B00221A703B7B252B03D15D4B0222D8
:100D1C001A70B1E05B4B00221A705B48FFF7AAFB1C
:100D2C000123AAE003215848FFF7B3FB07F10C039A
:100D3C0019465548FFF7BBFB5348FFF78CFB0023C4
:100D4C00BB6124E04F4B1B78012B0ED1BA693B6879
:100D5C009A4219D34B4B00221A704A4B00221A703C
:100D6C004948FFF787FB012387E0BB69B3F1FF3FDD
:100D7C000AD1444B00221A70424B00221A7042488E
:100D8C00FFF778FB012378E0BB690133BB613F4B74
:100D9C001B78DBB2012BD5D13B48FFF76BFB3B4BF0
:100DAC0000221A703A7B7B681A7007F10C0301332E
:100DBC001A887B681A81334B03221A705CE07B68BB
:100DCC001B8902339BB219462F48FFF762FB7B68E5
:100DDC005B6819462C48FFF76AFB2B48FFF73BFB77
:100DEC0000237B6124E0274B1B78012B0ED17A6901
:100DFC003B689A4219D3234B00221A70214B0022D4
:100E0C001A702148FFF736FB012336E07B69B3F1FA
:100E1C00FF3F0AD11B4B00221A701A4B00221A708A
:100E2C001948FFF727FB012327E07B6901337B611E
:100E3C00164B1B78DBB2012BD5D11348FFF71AFBED
:100E4C00124B00221A707B685B687A681289134413
:100E5C001B887B82786800F081F803463B82094B43
:100E6C0000221A703A8A7B8A9A4201D1002304E04C
:100E7C00012302E0012300E0FBE618462037BD46C3
:100E8C0080BD00BF3E280020580002403C280020B6
:100E9C0090B585B000AF78602B4B1B78002B01D040
:100EAC0001234DE0284B04221A70284B25221A707E
:100EBC007B681A78254B5A70254A7B681B891380EE
:100ECC000023FB600DE0FB680433204A13447A686E
:100EDC005168FA680A44127892B21A80FB6801339E
:100EEC00FB607B681B891A46FB689A42EBD87B68CF
:100EFC001B890433154A9C18786800F02FF80346B8
:100F0C0023807B681B8906339BB219461148FFF777
:100F1C00C0FA0E490F48FFF7CAFA0F4B02221A709B
:100F2C000C48FFF798FA00BF0B4B1B78DBB2032B76
:100F3C00FAD10848FFF79EFA034B00221A700023DF
:100F4C0018461437BD4690BD3F280020502800207D
:100F5C0052280020440002403D28002080B485B077
:100F6C0000AF78600023FB810023BB817B681B787A
:100F7C009AB2BB891344BB817B681B89DBB29AB2E2
:100F8C00BB891344BB817B681B891B0A9BB2DBB2F8
:100F9C009AB2BB891344BB817B685B68BB6000233E
:100FAC00FB810BE0BB681B789AB2BB891344BB81F5
:100FBC00BB680133BB60FB890133FB817B681B89F8
:100FCC00FA899A42EED3BB8918461437BD4680BCC9
:100FDC007047000080B500AF034B03221A70042049
:100FEC00FFF78EFA00BF80BD3D28002080B500AF12
:100FFC00034B01221A700520FFF782FA00BF80BD57
:10100C003C28002070B500250C4E0D4CA41BA410E0
:10101C00A54209D100F01AF800250A4E0A4CA41B6F
:10102C00A410A54205D170BD56F82530984701355E
:10103C00EEE756F8253098470135F2E770100008B6
:10104C00701000087010000874100008F8B500BF8C
:10105C00F8BC08BC9E467047F8B500BFF8BC08BC8D
:04106C009E467047E5
:041070003101000842
:041074000D01000862
:1010780000080140090000000600000000080140C7
:101088000A00000001000000080200000902000038
:020000042000DA
:1000000000000000000000000000000000000000F0
:1000100000000000000000000000000000000000E0
:1000200000000000000000000000000000000000D0
:1000300000000000000000000000000000000000C0
:040000050800014DA1
:00000001FF
